:107800001F92CDB7DEB7112482E08093C00088E1DB
:107810008093C10086E08093C20080E18093C40021
:1078200004B714BE8AE2F6D000FF02C080E5F2D0B1
:10783000102F127001FF02C085E4ECD002FF02C0DD
:1078400082E4E8D0802F8870F82E03FF02C087E51D
:10785000E1D085E08093810083E5DCD0111106C082
:10786000F110F1D081E4D6D0802FDED18EE0E5D0CA
:10787000219A86E020E33CEF91E03093850020934D
:10788000840096BBB09BFECF199AA8958150A9F7AA
:10789000812C912C13E001E025E0F22E31E1E32E62
:1078A000C0D0813479F4BDD08983AFD18981823849
:1078B00011F482E005C0813811F48AE101C083E04F
:1078C000A9D071C0823411F484E103C0853419F465
:1078D00085E0A3D168C0853549F4A3D0D82EA1D0C6
:1078E0008D2C912C982A880C991C5CC0863521F42B
:1078F00084E093D180E0E4CF843609F036C091D0A3
:1079000090D0D82E8ED0C82EA12CBB24B39489D071
:10791000F50181935F01DE12FACF77D1F5E4CF1242
:1079200001C0FFCFF40117BFE89507B600FCFDCFFB
:10793000A401A0E0B1E02C911296CD010197FC01C9
:10794000808130E0382BFA01090107BFE895112446
:107950004E5F5F4FDA12EFCFF401F7BEE89507B63E
:1079600000FCFDCFE7BEE8951EC0843771F459D006
:1079700058D0D82E56D049D15401F50185915F01D8
:1079800049D0DA94D110F9CF0EC0853739F43DD102
:107990008EE140D085E93ED08FE092CF813511F461
:1079A00088E04BD032D180E135D07ACF8EBD0DB496
:1079B00007FEFDCF8EB508955D9885E0F7DF80E086
:1079C000F5DF5D9A81700895CF93C82F662321F06B
:1079D00060E086E0F9DF5D9AEFDF8111FDCF5D9811
:1079E0008C2FCF91E3CFCF92DF92EF92FF926B017A
:1079F0007C0160E083E0E8DF8E2DD8DF8D2DD6DFBF
:107A00008C2DD4DF80E0D2DF5D9AFF90EF90DF9085
:107A1000CF9008959091C00095FFFCCF8093C60051
:107A200008958091C00087FFFCCF8091C00084FD45
:107A300001C0A8958091C6000895E0E6F0E098E1C5
:107A40009083808308959F92AF92BF92CF92DF92EE
:107A5000EF92FF920F931F93CF93DF9386E4DADFC9
:107A600080E0EBDF84B18C6284B9559A5D9A2A9AE2
:107A70008CB580658CBD61E08FE9A6DF80E096DF84
:107A8000C82F5D9AC7DFC150CE3F08F0B2C061E099
:107A900081E09ADF80E08ADF5D9A89E4BBDF60E005
:107AA00070E0CB01A0DF863409F096C061E070E0A1
:107AB00080E090E098DF8C3409F08EC062E070E0E6
:107AC00080E090E090DF883509F086C066E070E0E5
:107AD00080E090E088DF8A3309F07EC069E070E0E2
:107AE00080E090E080DF8A3309F076C08CE492DF9A
:107AF00067E070E080E090E076DFC82F68E070E03B
:107B000080E090E070DFD0E0DC2FCC27C82BC0FDF8
:107B100070C0199AC12CD12C00E010E0BB24B394A2
:107B200083E0A82E95E0992E0C171D0708F030C0B1
:107B30008AE270DFB801665F7F4F80E090E053DF3C
:107B4000E82EF12CB801655F7F4F80E090E04BDFBD
:107B5000F82AF8010701B7BEE89511240E5F1F4F00
:107B6000C8018F779927892B19F00C171D07E1F6AB
:107B7000F601A7BEE89507B600FCFDCFF60197BE5B
:107B8000E89507B600FCFDCFF0E8CF0ED11CCCCFB6
:107B9000199881E187BFE89585E43CDFC12CD12CA1
:107BA000760161E080E210DF80E000DF8D2DFEDEF7
:107BB00080E0FCDE5D9A00DF8111FDCF80E1D80E10
:107BC000E11CF11CC114E0E8DE06E104F10449F710
:107BD0005D9A88E032DFFFCF88E5DF91CF911F917A
:107BE0000F91FF90EF90DF90CF90BF90AF909F905C
:107BF00011CFDF91CF911F910F91FF90EF90DF9008
:107C0000CF90BF90AF909F9008950BDF803219F016
:107C100088E013DFFFCF84E1FDCECF93C82F01DFD3
:107C2000C150E9F7CF91F1CF282E80E006DFE0E0E8
:047C3000FF2709948D
:027FFE00021A65
:040000030000780081
:00000001FF
