:107C00001F92CDB7DEB7112482E08093C00088E1D7
:107C10008093C10086E08093C20080E18093C4001D
:107C200084B714BE95E09093810081FD06C083FF68
:107C300003C08983EFD08981C4D18EE0E5D0219A39
:107C400086E020E33CEF91E03093850020938400B0
:107C500096BBB09BFECF199AA8958150A9F7812CAD
:107C6000912C13E001E025E0F22E31E1E32EC0D0AB
:107C7000813479F4BDD0898395D18981823811F41A
:107C800082E005C0813811F48AE101C083E0A9D007
:107C900071C0823411F484E103C0853419F485E0A5
:107CA00089D168C0853549F4A3D0D82EA1D08D2CB8
:107CB000912C982A880C991C5CC0863521F484E0AC
:107CC00079D180E0E4CF843609F036C091D090D0ED
:107CD000D82E8ED0C82EA12CBB24B39489D0F50108
:107CE00081935F01DE12FACF5DD1F5E4CF1201C0BE
:107CF000FFCFF40117BFE89507B600FCFDCFA40144
:107D0000A0E0B1E02C911296CD010197FC01808199
:107D100030E0382BFA01090107BFE89511244E5FC6
:107D20005F4FDA12EFCFF401F7BEE89507B600FC1B
:107D3000FDCFE7BEE8951EC0843771F459D058D006
:107D4000D82E56D02FD15401F50185915F0149D02D
:107D5000DA94D110F9CF0EC0853739F423D18EE1F2
:107D600040D085E93ED08FE092CF813511F488E094
:107D70004BD018D180E135D07ACF8EBD0DB407FE3F
:107D8000FDCF8EB508955D9885E0F7DF80E0F5DFE3
:107D90005D9A81700895CF93C82F662321F060E02B
:107DA00086E0F9DF5D9AEFDF8111FDCF5D988C2FC2
:107DB000CF91E3CFCF92DF92EF92FF926B017C01E4
:107DC00060E083E0E8DF8E2DD8DF8D2DD6DF8C2DAF
:107DD000D4DF80E0D2DF5D9AFF90EF90DF90CF900C
:107DE00008959091C00095FFFCCF8093C600089540
:107DF0008091C00087FFFCCF8091C00084FD01C04E
:107E0000A8958091C6000895E0E6F0E098E190839F
:107E1000808308959F92AF92BF92CF92DF92EF92AC
:107E2000FF920F931F93CF93DF9380E0EDDF84B138
:107E30008C6284B9559A5D9A2A9A8CB580658CBDFE
:107E400061E08FE9A8DF80E098DF5D9A81508E3F86
:107E500008F09CC061E081E09EDF80E08EDF5D9AEB
:107E600060E070E0CB01A6DF863409F08FC061E0EE
:107E700070E080E090E09EDF8C3409F087C062E023
:107E800070E080E090E096DF883509F07FC066E022
:107E900070E080E090E08EDF8A3309F077C069E01F
:107EA00070E080E090E086DF8A3309F06FC067E021
:107EB00070E080E090E07EDFC82F68E070E080E056
:107EC00090E078DFD0E0DC2FCC27C82BC0FD5EC06F
:107ED000199AC12CD12C00E010E0BB24B39483E0AC
:107EE000A82E95E0992E0C171D0770F5B801665F56
:107EF0007F4F80E090E05EDFE82EF12CB801655FF7
:107F00007F4F80E090E056DFF82AF8010701B7BE06
:107F1000E89511240E5F1F4FC8018F779927892B91
:107F200019F00C171D07F9F6F601A7BEE89507B67C
:107F300000FCFDCFF60197BEE89507B600FCFDCF2B
:107F4000F0E8CF0ED11CCFCF199881E187BFE8951B
:107F5000C12CD12C760161E080E21DDF80E00DDFD5
:107F60008D2D0BDF80E009DF5D9A0DDF8111FDCFE4
:107F700080E1D80EE11CF11CC114E0E8DE06E1044A
:107F8000F10449F75D9A88E03FDFFFCFDF91CF91A1
:107F90001F910F91FF90EF90DF90CF90BF90AF9027
:107FA0009F90089525DF803219F088E02DDFFFCF04
:107FB00084E117CFCF93C82F1BDFC150E9F7CF91D2
:0E7FC000F1CF282E80E020DFE0E0FF270994BB
:027FFE00021A65
:0400000300007C007D
:00000001FF
